{
  "_format": "hh-sol-artifact-1",
  "contractName": "USD",
  "sourceName": "contracts/USD.sol",
  "abi": [
    {
      "inputs": [
        {
          "internalType": "string",
          "name": "name",
          "type": "string"
        },
        {
          "internalType": "string",
          "name": "symbol",
          "type": "string"
        }
      ],
      "stateMutability": "nonpayable",
      "type": "constructor"
    },
    {
      "inputs": [],
      "name": "ECDSAInvalidSignature",
      "type": "error"
    },
    {
      "inputs": [
        {
          "internalType": "uint256",
          "name": "length",
          "type": "uint256"
        }
      ],
      "name": "ECDSAInvalidSignatureLength",
      "type": "error"
    },
    {
      "inputs": [
        {
          "internalType": "bytes32",
          "name": "s",
          "type": "bytes32"
        }
      ],
      "name": "ECDSAInvalidSignatureS",
      "type": "error"
    },
    {
      "inputs": [
        {
          "internalType": "address",
          "name": "spender",
          "type": "address"
        },
        {
          "internalType": "uint256",
          "name": "allowance",
          "type": "uint256"
        },
        {
          "internalType": "uint256",
          "name": "needed",
          "type": "uint256"
        }
      ],
      "name": "ERC20InsufficientAllowance",
      "type": "error"
    },
    {
      "inputs": [
        {
          "internalType": "address",
          "name": "sender",
          "type": "address"
        },
        {
          "internalType": "uint256",
          "name": "balance",
          "type": "uint256"
        },
        {
          "internalType": "uint256",
          "name": "needed",
          "type": "uint256"
        }
      ],
      "name": "ERC20InsufficientBalance",
      "type": "error"
    },
    {
      "inputs": [
        {
          "internalType": "address",
          "name": "approver",
          "type": "address"
        }
      ],
      "name": "ERC20InvalidApprover",
      "type": "error"
    },
    {
      "inputs": [
        {
          "internalType": "address",
          "name": "receiver",
          "type": "address"
        }
      ],
      "name": "ERC20InvalidReceiver",
      "type": "error"
    },
    {
      "inputs": [
        {
          "internalType": "address",
          "name": "sender",
          "type": "address"
        }
      ],
      "name": "ERC20InvalidSender",
      "type": "error"
    },
    {
      "inputs": [
        {
          "internalType": "address",
          "name": "spender",
          "type": "address"
        }
      ],
      "name": "ERC20InvalidSpender",
      "type": "error"
    },
    {
      "inputs": [
        {
          "internalType": "uint256",
          "name": "deadline",
          "type": "uint256"
        }
      ],
      "name": "ERC2612ExpiredSignature",
      "type": "error"
    },
    {
      "inputs": [
        {
          "internalType": "address",
          "name": "signer",
          "type": "address"
        },
        {
          "internalType": "address",
          "name": "owner",
          "type": "address"
        }
      ],
      "name": "ERC2612InvalidSigner",
      "type": "error"
    },
    {
      "inputs": [
        {
          "internalType": "address",
          "name": "account",
          "type": "address"
        },
        {
          "internalType": "uint256",
          "name": "currentNonce",
          "type": "uint256"
        }
      ],
      "name": "InvalidAccountNonce",
      "type": "error"
    },
    {
      "inputs": [],
      "name": "InvalidShortString",
      "type": "error"
    },
    {
      "inputs": [
        {
          "internalType": "address",
          "name": "owner",
          "type": "address"
        }
      ],
      "name": "OwnableInvalidOwner",
      "type": "error"
    },
    {
      "inputs": [
        {
          "internalType": "address",
          "name": "account",
          "type": "address"
        }
      ],
      "name": "OwnableUnauthorizedAccount",
      "type": "error"
    },
    {
      "inputs": [
        {
          "internalType": "string",
          "name": "str",
          "type": "string"
        }
      ],
      "name": "StringTooLong",
      "type": "error"
    },
    {
      "anonymous": false,
      "inputs": [
        {
          "indexed": true,
          "internalType": "address",
          "name": "owner",
          "type": "address"
        },
        {
          "indexed": true,
          "internalType": "address",
          "name": "spender",
          "type": "address"
        },
        {
          "indexed": false,
          "internalType": "uint256",
          "name": "value",
          "type": "uint256"
        }
      ],
      "name": "Approval",
      "type": "event"
    },
    {
      "anonymous": false,
      "inputs": [],
      "name": "EIP712DomainChanged",
      "type": "event"
    },
    {
      "anonymous": false,
      "inputs": [
        {
          "indexed": true,
          "internalType": "address",
          "name": "previousOwner",
          "type": "address"
        },
        {
          "indexed": true,
          "internalType": "address",
          "name": "newOwner",
          "type": "address"
        }
      ],
      "name": "OwnershipTransferred",
      "type": "event"
    },
    {
      "anonymous": false,
      "inputs": [
        {
          "indexed": true,
          "internalType": "address",
          "name": "from",
          "type": "address"
        },
        {
          "indexed": true,
          "internalType": "address",
          "name": "to",
          "type": "address"
        },
        {
          "indexed": false,
          "internalType": "uint256",
          "name": "value",
          "type": "uint256"
        }
      ],
      "name": "Transfer",
      "type": "event"
    },
    {
      "inputs": [],
      "name": "DOMAIN_SEPARATOR",
      "outputs": [
        {
          "internalType": "bytes32",
          "name": "",
          "type": "bytes32"
        }
      ],
      "stateMutability": "view",
      "type": "function"
    },
    {
      "inputs": [
        {
          "internalType": "address",
          "name": "owner",
          "type": "address"
        },
        {
          "internalType": "address",
          "name": "spender",
          "type": "address"
        }
      ],
      "name": "allowance",
      "outputs": [
        {
          "internalType": "uint256",
          "name": "",
          "type": "uint256"
        }
      ],
      "stateMutability": "view",
      "type": "function"
    },
    {
      "inputs": [
        {
          "internalType": "address",
          "name": "spender",
          "type": "address"
        },
        {
          "internalType": "uint256",
          "name": "value",
          "type": "uint256"
        }
      ],
      "name": "approve",
      "outputs": [
        {
          "internalType": "bool",
          "name": "",
          "type": "bool"
        }
      ],
      "stateMutability": "nonpayable",
      "type": "function"
    },
    {
      "inputs": [
        {
          "internalType": "address",
          "name": "account",
          "type": "address"
        }
      ],
      "name": "balanceOf",
      "outputs": [
        {
          "internalType": "uint256",
          "name": "",
          "type": "uint256"
        }
      ],
      "stateMutability": "view",
      "type": "function"
    },
    {
      "inputs": [],
      "name": "decimals",
      "outputs": [
        {
          "internalType": "uint8",
          "name": "",
          "type": "uint8"
        }
      ],
      "stateMutability": "view",
      "type": "function"
    },
    {
      "inputs": [],
      "name": "eip712Domain",
      "outputs": [
        {
          "internalType": "bytes1",
          "name": "fields",
          "type": "bytes1"
        },
        {
          "internalType": "string",
          "name": "name",
          "type": "string"
        },
        {
          "internalType": "string",
          "name": "version",
          "type": "string"
        },
        {
          "internalType": "uint256",
          "name": "chainId",
          "type": "uint256"
        },
        {
          "internalType": "address",
          "name": "verifyingContract",
          "type": "address"
        },
        {
          "internalType": "bytes32",
          "name": "salt",
          "type": "bytes32"
        },
        {
          "internalType": "uint256[]",
          "name": "extensions",
          "type": "uint256[]"
        }
      ],
      "stateMutability": "view",
      "type": "function"
    },
    {
      "inputs": [
        {
          "internalType": "address",
          "name": "to",
          "type": "address"
        },
        {
          "internalType": "uint256",
          "name": "amount",
          "type": "uint256"
        }
      ],
      "name": "mint",
      "outputs": [],
      "stateMutability": "nonpayable",
      "type": "function"
    },
    {
      "inputs": [],
      "name": "name",
      "outputs": [
        {
          "internalType": "string",
          "name": "",
          "type": "string"
        }
      ],
      "stateMutability": "view",
      "type": "function"
    },
    {
      "inputs": [
        {
          "internalType": "address",
          "name": "owner",
          "type": "address"
        }
      ],
      "name": "nonces",
      "outputs": [
        {
          "internalType": "uint256",
          "name": "",
          "type": "uint256"
        }
      ],
      "stateMutability": "view",
      "type": "function"
    },
    {
      "inputs": [],
      "name": "owner",
      "outputs": [
        {
          "internalType": "address",
          "name": "",
          "type": "address"
        }
      ],
      "stateMutability": "view",
      "type": "function"
    },
    {
      "inputs": [
        {
          "internalType": "address",
          "name": "owner",
          "type": "address"
        },
        {
          "internalType": "address",
          "name": "spender",
          "type": "address"
        },
        {
          "internalType": "uint256",
          "name": "value",
          "type": "uint256"
        },
        {
          "internalType": "uint256",
          "name": "deadline",
          "type": "uint256"
        },
        {
          "internalType": "uint8",
          "name": "v",
          "type": "uint8"
        },
        {
          "internalType": "bytes32",
          "name": "r",
          "type": "bytes32"
        },
        {
          "internalType": "bytes32",
          "name": "s",
          "type": "bytes32"
        }
      ],
      "name": "permit",
      "outputs": [],
      "stateMutability": "nonpayable",
      "type": "function"
    },
    {
      "inputs": [],
      "name": "renounceOwnership",
      "outputs": [],
      "stateMutability": "nonpayable",
      "type": "function"
    },
    {
      "inputs": [],
      "name": "symbol",
      "outputs": [
        {
          "internalType": "string",
          "name": "",
          "type": "string"
        }
      ],
      "stateMutability": "view",
      "type": "function"
    },
    {
      "inputs": [],
      "name": "totalSupply",
      "outputs": [
        {
          "internalType": "uint256",
          "name": "",
          "type": "uint256"
        }
      ],
      "stateMutability": "view",
      "type": "function"
    },
    {
      "inputs": [
        {
          "internalType": "address",
          "name": "to",
          "type": "address"
        },
        {
          "internalType": "uint256",
          "name": "value",
          "type": "uint256"
        }
      ],
      "name": "transfer",
      "outputs": [
        {
          "internalType": "bool",
          "name": "",
          "type": "bool"
        }
      ],
      "stateMutability": "nonpayable",
      "type": "function"
    },
    {
      "inputs": [
        {
          "internalType": "address",
          "name": "from",
          "type": "address"
        },
        {
          "internalType": "address",
          "name": "to",
          "type": "address"
        },
        {
          "internalType": "uint256",
          "name": "value",
          "type": "uint256"
        }
      ],
      "name": "transferFrom",
      "outputs": [
        {
          "internalType": "bool",
          "name": "",
          "type": "bool"
        }
      ],
      "stateMutability": "nonpayable",
      "type": "function"
    },
    {
      "inputs": [
        {
          "internalType": "address",
          "name": "newOwner",
          "type": "address"
        }
      ],
      "name": "transferOwnership",
      "outputs": [],
      "stateMutability": "nonpayable",
      "type": "function"
    }
  ],
  "bytecode": "0x61016060405234801561001157600080fd5b5060405161180c38038061180c833981016040819052610030916102e3565b6040805180820190915260018152603160f81b602082015282908190338285600361005b83826103d5565b50600461006882826103d5565b5050506001600160a01b03811661009a57604051631e4fbdf760e01b8152600060048201526024015b60405180910390fd5b6100a38161015d565b506100af8260066101af565b610120526100be8160076101af565b61014052815160208084019190912060e052815190820120610100524660a05261014b60e05161010051604080517f8b73c3c69bb8fe3d512ecc4cf759cc79239f7b179b0ffacaa9a75d522b39400f60208201529081019290925260608201524660808201523060a082015260009060c00160405160208183030381529060405280519060200120905090565b60805250503060c052506104ea915050565b600580546001600160a01b038381166001600160a01b0319831681179093556040519116919082907f8be0079c531659141344cd1fd0a4f28419497f9722a3daafe3b4186f6b6457e090600090a35050565b60006020835110156101cb576101c4836101e2565b90506101dc565b816101d684826103d5565b5060ff90505b92915050565b600080829050601f8151111561020d578260405163305a27a960e01b81526004016100919190610493565b8051610218826104c6565b179392505050565b634e487b7160e01b600052604160045260246000fd5b60005b83811015610251578181015183820152602001610239565b50506000910152565b600082601f83011261026b57600080fd5b81516001600160401b0381111561028457610284610220565b604051601f8201601f19908116603f011681016001600160401b03811182821017156102b2576102b2610220565b6040528181528382016020018510156102ca57600080fd5b6102db826020830160208701610236565b949350505050565b600080604083850312156102f657600080fd5b82516001600160401b0381111561030c57600080fd5b6103188582860161025a565b602085015190935090506001600160401b0381111561033657600080fd5b6103428582860161025a565b9150509250929050565b600181811c9082168061036057607f821691505b60208210810361038057634e487b7160e01b600052602260045260246000fd5b50919050565b601f8211156103d057806000526020600020601f840160051c810160208510156103ad5750805b601f840160051c820191505b818110156103cd57600081556001016103b9565b50505b505050565b81516001600160401b038111156103ee576103ee610220565b610402816103fc845461034c565b84610386565b6020601f821160018114610436576000831561041e5750848201515b600019600385901b1c1916600184901b1784556103cd565b600084815260208120601f198516915b828110156104665787850151825560209485019460019092019101610446565b50848210156104845786840151600019600387901b60f8161c191681555b50505050600190811b01905550565b60208152600082518060208401526104b2816040850160208701610236565b601f01601f19169190910160400192915050565b805160208083015191908110156103805760001960209190910360031b1b16919050565b60805160a05160c05160e0516101005161012051610140516112c861054460003960006109e5015260006109b80152600061087a01526000610852015260006107ad015260006107d70152600061080101526112c86000f3fe608060405234801561001057600080fd5b506004361061011b5760003560e01c8063715018a6116100b257806395d89b4111610081578063d505accf11610066578063d505accf14610247578063dd62ed3e1461025a578063f2fde38b1461029357600080fd5b806395d89b411461022c578063a9059cbb1461023457600080fd5b8063715018a6146101db5780637ecebe00146101e357806384b0196e146101f65780638da5cb5b1461021157600080fd5b8063313ce567116100ee578063313ce567146101865780633644e5151461019557806340c10f191461019d57806370a08231146101b257600080fd5b806306fdde0314610120578063095ea7b31461013e57806318160ddd1461016157806323b872dd14610173575b600080fd5b6101286102a6565b604051610135919061100f565b60405180910390f35b61015161014c366004611045565b610338565b6040519015158152602001610135565b6002545b604051908152602001610135565b61015161018136600461106f565b610352565b60405160128152602001610135565b610165610376565b6101b06101ab366004611045565b610385565b005b6101656101c03660046110ac565b6001600160a01b031660009081526020819052604090205490565b6101b061040b565b6101656101f13660046110ac565b61041f565b6101fe61043d565b60405161013597969594939291906110c7565b6005546040516001600160a01b039091168152602001610135565b61012861049f565b610151610242366004611045565b6104ae565b6101b061025536600461117b565b6104bc565b6101656102683660046111ee565b6001600160a01b03918216600090815260016020908152604080832093909416825291909152205490565b6101b06102a13660046110ac565b610628565b6060600380546102b590611221565b80601f01602080910402602001604051908101604052809291908181526020018280546102e190611221565b801561032e5780601f106103035761010080835404028352916020019161032e565b820191906000526020600020905b81548152906001019060200180831161031157829003601f168201915b5050505050905090565b60003361034681858561067f565b60019150505b92915050565b600033610360858285610691565b61036b858585610728565b506001949350505050565b60006103806107a0565b905090565b68056bc75e2d631000008111156103fd576040517f08c379a000000000000000000000000000000000000000000000000000000000815260206004820152601c60248201527f616d6f756e74206d757374206265206c657373207468616e203130300000000060448201526064015b60405180910390fd5b61040782826108cb565b5050565b610413610901565b61041d6000610947565b565b6001600160a01b03811660009081526008602052604081205461034c565b6000606080600080600060606104516109b1565b6104596109de565b604080516000808252602082019092527f0f000000000000000000000000000000000000000000000000000000000000009b939a50919850469750309650945092509050565b6060600480546102b590611221565b600033610346818585610728565b834211156104f9576040517f62791302000000000000000000000000000000000000000000000000000000008152600481018590526024016103f4565b60007f6e71edae12b1b97f4d1f60370fef10105fa2faae0126114a169c64845d6126c98888886105468c6001600160a01b0316600090815260086020526040902080546001810190915590565b6040805160208101969096526001600160a01b0394851690860152929091166060840152608083015260a082015260c0810186905260e00160405160208183030381529060405280519060200120905060006105a182610a0b565b905060006105b182878787610a53565b9050896001600160a01b0316816001600160a01b031614610611576040517f4b800e460000000000000000000000000000000000000000000000000000000081526001600160a01b0380831660048301528b1660248201526044016103f4565b61061c8a8a8a61067f565b50505050505050505050565b610630610901565b6001600160a01b038116610673576040517f1e4fbdf7000000000000000000000000000000000000000000000000000000008152600060048201526024016103f4565b61067c81610947565b50565b61068c8383836001610a81565b505050565b6001600160a01b0383811660009081526001602090815260408083209386168352929052205460001981146107225781811015610713576040517ffb8f41b20000000000000000000000000000000000000000000000000000000081526001600160a01b038416600482015260248101829052604481018390526064016103f4565b61072284848484036000610a81565b50505050565b6001600160a01b03831661076b576040517f96c6fd1e000000000000000000000000000000000000000000000000000000008152600060048201526024016103f4565b6001600160a01b0382166107955760405163ec442f0560e01b8152600060048201526024016103f4565b61068c838383610b88565b6000306001600160a01b037f0000000000000000000000000000000000000000000000000000000000000000161480156107f957507f000000000000000000000000000000000000000000000000000000000000000046145b1561082357507f000000000000000000000000000000000000000000000000000000000000000090565b610380604080517f8b73c3c69bb8fe3d512ecc4cf759cc79239f7b179b0ffacaa9a75d522b39400f60208201527f0000000000000000000000000000000000000000000000000000000000000000918101919091527f000000000000000000000000000000000000000000000000000000000000000060608201524660808201523060a082015260009060c00160405160208183030381529060405280519060200120905090565b6001600160a01b0382166108f55760405163ec442f0560e01b8152600060048201526024016103f4565b61040760008383610b88565b6005546001600160a01b0316331461041d576040517f118cdaa70000000000000000000000000000000000000000000000000000000081523360048201526024016103f4565b600580546001600160a01b038381167fffffffffffffffffffffffff0000000000000000000000000000000000000000831681179093556040519116919082907f8be0079c531659141344cd1fd0a4f28419497f9722a3daafe3b4186f6b6457e090600090a35050565b60606103807f00000000000000000000000000000000000000000000000000000000000000006006610ccb565b60606103807f00000000000000000000000000000000000000000000000000000000000000006007610ccb565b600061034c610a186107a0565b836040517f19010000000000000000000000000000000000000000000000000000000000008152600281019290925260228201526042902090565b600080600080610a6588888888610d76565b925092509250610a758282610e45565b50909695505050505050565b6001600160a01b038416610ac4576040517fe602df05000000000000000000000000000000000000000000000000000000008152600060048201526024016103f4565b6001600160a01b038316610b07576040517f94280d62000000000000000000000000000000000000000000000000000000008152600060048201526024016103f4565b6001600160a01b038085166000908152600160209081526040808320938716835292905220829055801561072257826001600160a01b0316846001600160a01b03167f8c5be1e5ebec7d5bd14f71427d1e84f3dd0314c0f7b2291e5b200ac8c7c3b92584604051610b7a91815260200190565b60405180910390a350505050565b6001600160a01b038316610bb3578060026000828254610ba8919061125b565b90915550610c3e9050565b6001600160a01b03831660009081526020819052604090205481811015610c1f576040517fe450d38c0000000000000000000000000000000000000000000000000000000081526001600160a01b038516600482015260248101829052604481018390526064016103f4565b6001600160a01b03841660009081526020819052604090209082900390555b6001600160a01b038216610c5a57600280548290039055610c79565b6001600160a01b03821660009081526020819052604090208054820190555b816001600160a01b0316836001600160a01b03167fddf252ad1be2c89b69c2b068fc378daa952ba7f163c4a11628f55a4df523b3ef83604051610cbe91815260200190565b60405180910390a3505050565b606060ff8314610ce557610cde83610f49565b905061034c565b818054610cf190611221565b80601f0160208091040260200160405190810160405280929190818152602001828054610d1d90611221565b8015610d6a5780601f10610d3f57610100808354040283529160200191610d6a565b820191906000526020600020905b815481529060010190602001808311610d4d57829003601f168201915b5050505050905061034c565b600080807f7fffffffffffffffffffffffffffffff5d576e7357a4501ddfe92f46681b20a0841115610db15750600091506003905082610e3b565b604080516000808252602082018084528a905260ff891692820192909252606081018790526080810186905260019060a0016020604051602081039080840390855afa158015610e05573d6000803e3d6000fd5b5050604051601f1901519150506001600160a01b038116610e3157506000925060019150829050610e3b565b9250600091508190505b9450945094915050565b6000826003811115610e5957610e5961127c565b03610e62575050565b6001826003811115610e7657610e7661127c565b03610ead576040517ff645eedf00000000000000000000000000000000000000000000000000000000815260040160405180910390fd5b6002826003811115610ec157610ec161127c565b03610efb576040517ffce698f7000000000000000000000000000000000000000000000000000000008152600481018290526024016103f4565b6003826003811115610f0f57610f0f61127c565b03610407576040517fd78bce0c000000000000000000000000000000000000000000000000000000008152600481018290526024016103f4565b60606000610f5683610f88565b604080516020808252818301909252919250600091906020820181803683375050509182525060208101929092525090565b600060ff8216601f81111561034c576040517fb3512b0c00000000000000000000000000000000000000000000000000000000815260040160405180910390fd5b6000815180845260005b81811015610fef57602081850181015186830182015201610fd3565b506000602082860101526020601f19601f83011685010191505092915050565b6020815260006110226020830184610fc9565b9392505050565b80356001600160a01b038116811461104057600080fd5b919050565b6000806040838503121561105857600080fd5b61106183611029565b946020939093013593505050565b60008060006060848603121561108457600080fd5b61108d84611029565b925061109b60208501611029565b929592945050506040919091013590565b6000602082840312156110be57600080fd5b61102282611029565b7fff000000000000000000000000000000000000000000000000000000000000008816815260e06020820152600061110260e0830189610fc9565b82810360408401526111148189610fc9565b606084018890526001600160a01b038716608085015260a0840186905283810360c08501528451808252602080870193509091019060005b8181101561116a57835183526020938401939092019160010161114c565b50909b9a5050505050505050505050565b600080600080600080600060e0888a03121561119657600080fd5b61119f88611029565b96506111ad60208901611029565b95506040880135945060608801359350608088013560ff811681146111d157600080fd5b9699959850939692959460a0840135945060c09093013592915050565b6000806040838503121561120157600080fd5b61120a83611029565b915061121860208401611029565b90509250929050565b600181811c9082168061123557607f821691505b60208210810361125557634e487b7160e01b600052602260045260246000fd5b50919050565b8082018082111561034c57634e487b7160e01b600052601160045260246000fd5b634e487b7160e01b600052602160045260246000fdfea2646970667358221220962ad307de11e436e205e3d9a29ef042d38a56a42b373d923574e615332b925764736f6c634300081b0033",
  "linkReferences": {},
  "deployedLinkReferences": {}
}